{
  "_format": "hh-sol-artifact-1",
  "contractName": "WavePortal",
  "sourceName": "contracts/WavePortal.sol",
  "abi": [
    {
      "inputs": [],
      "stateMutability": "payable",
      "type": "constructor"
    },
    {
      "anonymous": false,
      "inputs": [
        {
          "indexed": true,
          "internalType": "address",
          "name": "from",
          "type": "address"
        },
        {
          "indexed": false,
          "internalType": "uint256",
          "name": "timestamp",
          "type": "uint256"
        },
        {
          "indexed": false,
          "internalType": "string",
          "name": "message",
          "type": "string"
        }
      ],
      "name": "NewWave",
      "type": "event"
    },
    {
      "inputs": [],
      "name": "getAllWaves",
      "outputs": [
        {
          "components": [
            {
              "internalType": "address",
              "name": "waver",
              "type": "address"
            },
            {
              "internalType": "string",
              "name": "message",
              "type": "string"
            },
            {
              "internalType": "uint256",
              "name": "timestamp",
              "type": "uint256"
            }
          ],
          "internalType": "struct WavePortal.Wave[]",
          "name": "",
          "type": "tuple[]"
        }
      ],
      "stateMutability": "view",
      "type": "function"
    },
    {
      "inputs": [],
      "name": "getTotalWaves",
      "outputs": [
        {
          "internalType": "uint256",
          "name": "",
          "type": "uint256"
        }
      ],
      "stateMutability": "view",
      "type": "function"
    },
    {
      "inputs": [
        {
          "internalType": "address",
          "name": "_addr",
          "type": "address"
        }
      ],
      "name": "getTotalWavesByAddress",
      "outputs": [
        {
          "internalType": "uint256",
          "name": "",
          "type": "uint256"
        }
      ],
      "stateMutability": "view",
      "type": "function"
    },
    {
      "inputs": [
        {
          "internalType": "address",
          "name": "",
          "type": "address"
        }
      ],
      "name": "lastWavedAt",
      "outputs": [
        {
          "internalType": "uint256",
          "name": "",
          "type": "uint256"
        }
      ],
      "stateMutability": "view",
      "type": "function"
    },
    {
      "inputs": [
        {
          "internalType": "string",
          "name": "_message",
          "type": "string"
        }
      ],
      "name": "wave",
      "outputs": [],
      "stateMutability": "nonpayable",
      "type": "function"
    }
  ],
  "bytecode": "0x60806040526200003360405180606001604052806025815260200162001417602591396200005b60201b620006521760201c565b60644442620000439190620001a8565b6200004f919062000245565b600181905550620002ec565b620000fb8160405160240162000072919062000168565b6040516020818303038152906040527f41304fac000000000000000000000000000000000000000000000000000000007bffffffffffffffffffffffffffffffffffffffffffffffffffffffff19166020820180517bffffffffffffffffffffffffffffffffffffffffffffffffffffffff8381831617835250505050620000fe60201b60201c565b50565b60008151905060006a636f6e736f6c652e6c6f679050602083016000808483855afa5050505050565b600062000134826200018c565b62000140818562000197565b9350620001528185602086016200020f565b6200015d81620002db565b840191505092915050565b6000602082019050818103600083015262000184818462000127565b905092915050565b600081519050919050565b600082825260208201905092915050565b6000620001b58262000205565b9150620001c28362000205565b9250827fffffffffffffffffffffffffffffffffffffffffffffffffffffffffffffffff03821115620001fa57620001f96200027d565b5b828201905092915050565b6000819050919050565b60005b838110156200022f57808201518184015260208101905062000212565b838111156200023f576000848401525b50505050565b6000620002528262000205565b91506200025f8362000205565b925082620002725762000271620002ac565b5b828206905092915050565b7f4e487b7100000000000000000000000000000000000000000000000000000000600052601160045260246000fd5b7f4e487b7100000000000000000000000000000000000000000000000000000000600052601260045260246000fd5b6000601f19601f8301169050919050565b61111b80620002fc6000396000f3fe608060405234801561001057600080fd5b50600436106100575760003560e01c80631e0070d31461005c578063449d46c01461008c5780639a2cdc08146100a8578063a42a4663146100c6578063bd43a908146100f6575b600080fd5b6100766004803603810190610071919061096f565b610114565b6040516100839190610dad565b60405180910390f35b6100a660048036038101906100a19190610998565b610162565b005b6100b061049e565b6040516100bd9190610dad565b60405180910390f35b6100e060048036038101906100db919061096f565b6104e9565b6040516100ed9190610dad565b60405180910390f35b6100fe610501565b60405161010b9190610c9b565b60405180910390f35b60006101586040518060400160405280601681526020017f2573206861732077617665642025642074696d65733a00000000000000000000815250836000546106eb565b6000549050919050565b42610384600360003373ffffffffffffffffffffffffffffffffffffffff1673ffffffffffffffffffffffffffffffffffffffff168152602001908152602001600020546101b09190610eca565b106101f0576040517f08c379a00000000000000000000000000000000000000000000000000000000081526004016101e790610d8d565b60405180910390fd5b42600360003373ffffffffffffffffffffffffffffffffffffffff1673ffffffffffffffffffffffffffffffffffffffff1681526020019081526020016000208190555060016000808282546102469190610eca565b92505081905550600260405180606001604052803373ffffffffffffffffffffffffffffffffffffffff16815260200183815260200142815250908060018154018082558091505060019003906000526020600020906003020160009091909190915060008201518160000160006101000a81548173ffffffffffffffffffffffffffffffffffffffff021916908373ffffffffffffffffffffffffffffffffffffffff160217905550602082015181600101908051906020019061030c92919061084f565b506040820151816002015550506064600154444261032a9190610eca565b6103349190610eca565b61033e9190610fd0565b60018190555060326001541161044b576000655af3107a400090504781111561039c576040517f08c379a000000000000000000000000000000000000000000000000000000000815260040161039390610d4d565b60405180910390fd5b60003373ffffffffffffffffffffffffffffffffffffffff16826040516103c290610c86565b60006040518083038185875af1925050503d80600081146103ff576040519150601f19603f3d011682016040523d82523d6000602084013e610404565b606091505b5050905080610448576040517f08c379a000000000000000000000000000000000000000000000000000000000815260040161043f90610d6d565b60405180910390fd5b50505b3373ffffffffffffffffffffffffffffffffffffffff167f5f7e16dc676677766a70e9c5628aa6c54ddb8b6e5188e2ae1e1f17f1ffbea7164283604051610493929190610dc8565b60405180910390a250565b60006104e16040518060400160405280601781526020017f5765206861766520256420746f74616c2077617665733a00000000000000000081525060005461078a565b600054905090565b60036020528060005260406000206000915090505481565b60606002805480602002602001604051908101604052809291908181526020016000905b8282101561064957838290600052602060002090600302016040518060600160405290816000820160009054906101000a900473ffffffffffffffffffffffffffffffffffffffff1673ffffffffffffffffffffffffffffffffffffffff1673ffffffffffffffffffffffffffffffffffffffff1681526020016001820180546105ae90610f9e565b80601f01602080910402602001604051908101604052809291908181526020018280546105da90610f9e565b80156106275780601f106105fc57610100808354040283529160200191610627565b820191906000526020600020905b81548152906001019060200180831161060a57829003601f168201915b5050505050815260200160028201548152505081526020019060010190610525565b50505050905090565b6106e8816040516024016106669190610cbd565b6040516020818303038152906040527f41304fac000000000000000000000000000000000000000000000000000000007bffffffffffffffffffffffffffffffffffffffffffffffffffffffff19166020820180517bffffffffffffffffffffffffffffffffffffffffffffffffffffffff8381831617835250505050610826565b50565b61078583838360405160240161070393929190610cdf565b6040516020818303038152906040527f07c81217000000000000000000000000000000000000000000000000000000007bffffffffffffffffffffffffffffffffffffffffffffffffffffffff19166020820180517bffffffffffffffffffffffffffffffffffffffffffffffffffffffff8381831617835250505050610826565b505050565b61082282826040516024016107a0929190610d1d565b6040516020818303038152906040527f9710a9d0000000000000000000000000000000000000000000000000000000007bffffffffffffffffffffffffffffffffffffffffffffffffffffffff19166020820180517bffffffffffffffffffffffffffffffffffffffffffffffffffffffff8381831617835250505050610826565b5050565b60008151905060006a636f6e736f6c652e6c6f679050602083016000808483855afa5050505050565b82805461085b90610f9e565b90600052602060002090601f01602090048101928261087d57600085556108c4565b82601f1061089657805160ff19168380011785556108c4565b828001600101855582156108c4579182015b828111156108c35782518255916020019190600101906108a8565b5b5090506108d191906108d5565b5090565b5b808211156108ee5760008160009055506001016108d6565b5090565b600061090561090084610e29565b610df8565b90508281526020810184848401111561091d57600080fd5b610928848285610f5c565b509392505050565b60008135905061093f816110ce565b92915050565b600082601f83011261095657600080fd5b81356109668482602086016108f2565b91505092915050565b60006020828403121561098157600080fd5b600061098f84828501610930565b91505092915050565b6000602082840312156109aa57600080fd5b600082013567ffffffffffffffff8111156109c457600080fd5b6109d084828501610945565b91505092915050565b60006109e58383610c18565b905092915050565b6109f681610f20565b82525050565b610a0581610f20565b82525050565b6000610a1682610e69565b610a208185610e8c565b935083602082028501610a3285610e59565b8060005b85811015610a6e5784840389528151610a4f85826109d9565b9450610a5a83610e7f565b925060208a01995050600181019050610a36565b50829750879550505050505092915050565b6000610a8b82610e74565b610a958185610ea8565b9350610aa5818560208601610f6b565b610aae816110bd565b840191505092915050565b6000610ac482610e74565b610ace8185610eb9565b9350610ade818560208601610f6b565b610ae7816110bd565b840191505092915050565b6000610aff603483610eb9565b91507f547279696e6720746f207769746864726177206d6f7265206d6f6e657920746860008301527f616e2074686520636f6e7472616374206861732e0000000000000000000000006020830152604082019050919050565b6000610b65602783610eb9565b91507f4661696c656420746f207769746864726177206d6f6e65792066726f6d20636f60008301527f6e74726163742e000000000000000000000000000000000000000000000000006020830152604082019050919050565b6000610bcb600083610e9d565b9150600082019050919050565b6000610be5600883610eb9565b91507f576169742031356d0000000000000000000000000000000000000000000000006000830152602082019050919050565b6000606083016000830151610c3060008601826109ed565b5060208301518482036020860152610c488282610a80565b9150506040830151610c5d6040860182610c68565b508091505092915050565b610c7181610f52565b82525050565b610c8081610f52565b82525050565b6000610c9182610bbe565b9150819050919050565b60006020820190508181036000830152610cb58184610a0b565b905092915050565b60006020820190508181036000830152610cd78184610ab9565b905092915050565b60006060820190508181036000830152610cf98186610ab9565b9050610d0860208301856109fc565b610d156040830184610c77565b949350505050565b60006040820190508181036000830152610d378185610ab9565b9050610d466020830184610c77565b9392505050565b60006020820190508181036000830152610d6681610af2565b9050919050565b60006020820190508181036000830152610d8681610b58565b9050919050565b60006020820190508181036000830152610da681610bd8565b9050919050565b6000602082019050610dc26000830184610c77565b92915050565b6000604082019050610ddd6000830185610c77565b8181036020830152610def8184610ab9565b90509392505050565b6000604051905081810181811067ffffffffffffffff82111715610e1f57610e1e61108e565b5b8060405250919050565b600067ffffffffffffffff821115610e4457610e4361108e565b5b601f19601f8301169050602081019050919050565b6000819050602082019050919050565b600081519050919050565b600081519050919050565b6000602082019050919050565b600082825260208201905092915050565b600081905092915050565b600082825260208201905092915050565b600082825260208201905092915050565b6000610ed582610f52565b9150610ee083610f52565b9250827fffffffffffffffffffffffffffffffffffffffffffffffffffffffffffffffff03821115610f1557610f14611001565b5b828201905092915050565b6000610f2b82610f32565b9050919050565b600073ffffffffffffffffffffffffffffffffffffffff82169050919050565b6000819050919050565b82818337600083830152505050565b60005b83811015610f89578082015181840152602081019050610f6e565b83811115610f98576000848401525b50505050565b60006002820490506001821680610fb657607f821691505b60208210811415610fca57610fc961105f565b5b50919050565b6000610fdb82610f52565b9150610fe683610f52565b925082610ff657610ff5611030565b5b828206905092915050565b7f4e487b7100000000000000000000000000000000000000000000000000000000600052601160045260246000fd5b7f4e487b7100000000000000000000000000000000000000000000000000000000600052601260045260246000fd5b7f4e487b7100000000000000000000000000000000000000000000000000000000600052602260045260246000fd5b7f4e487b7100000000000000000000000000000000000000000000000000000000600052604160045260246000fd5b6000601f19601f8301169050919050565b6110d781610f20565b81146110e257600080fd5b5056fea2646970667358221220dd3472e088d90ab6007194f03e240db81145f6c533ee88003cf5645926c4945d64736f6c63430008000033596f20796f2c204920616d206120636f6e747261637420616e64204920616d20736d617274",
  "linkReferences": {},
  "deployedLinkReferences": {}
}