{
  "_format": "hh-sol-artifact-1",
  "contractName": "WavePortal",
  "sourceName": "contracts/WavePortal.sol",
  "abi": [
    {
      "inputs": [],
      "stateMutability": "payable",
      "type": "constructor"
    },
    {
      "anonymous": false,
      "inputs": [
        {
          "indexed": true,
          "internalType": "address",
          "name": "from",
          "type": "address"
        },
        {
          "indexed": false,
          "internalType": "uint256",
          "name": "timestamp",
          "type": "uint256"
        },
        {
          "indexed": false,
          "internalType": "string",
          "name": "idea",
          "type": "string"
        }
      ],
      "name": "NewIdea",
      "type": "event"
    },
    {
      "anonymous": false,
      "inputs": [
        {
          "indexed": true,
          "internalType": "address",
          "name": "from",
          "type": "address"
        },
        {
          "indexed": false,
          "internalType": "uint256",
          "name": "votes",
          "type": "uint256"
        }
      ],
      "name": "NewVote",
      "type": "event"
    },
    {
      "anonymous": false,
      "inputs": [
        {
          "indexed": true,
          "internalType": "address",
          "name": "from",
          "type": "address"
        },
        {
          "indexed": false,
          "internalType": "uint256",
          "name": "timestamp",
          "type": "uint256"
        },
        {
          "indexed": false,
          "internalType": "string",
          "name": "message",
          "type": "string"
        }
      ],
      "name": "NewWave",
      "type": "event"
    },
    {
      "inputs": [
        {
          "internalType": "string",
          "name": "_idea",
          "type": "string"
        }
      ],
      "name": "createIdea",
      "outputs": [],
      "stateMutability": "nonpayable",
      "type": "function"
    },
    {
      "inputs": [],
      "name": "getAllIdeas",
      "outputs": [
        {
          "components": [
            {
              "internalType": "address",
              "name": "creator",
              "type": "address"
            },
            {
              "internalType": "string",
              "name": "name",
              "type": "string"
            },
            {
              "internalType": "uint256",
              "name": "timestamp",
              "type": "uint256"
            },
            {
              "internalType": "uint256",
              "name": "voteCount",
              "type": "uint256"
            }
          ],
          "internalType": "struct WavePortal.Idea[]",
          "name": "",
          "type": "tuple[]"
        }
      ],
      "stateMutability": "view",
      "type": "function"
    },
    {
      "inputs": [],
      "name": "getAllWaves",
      "outputs": [
        {
          "components": [
            {
              "internalType": "address",
              "name": "waver",
              "type": "address"
            },
            {
              "internalType": "string",
              "name": "message",
              "type": "string"
            },
            {
              "internalType": "uint256",
              "name": "timestamp",
              "type": "uint256"
            }
          ],
          "internalType": "struct WavePortal.Wave[]",
          "name": "",
          "type": "tuple[]"
        }
      ],
      "stateMutability": "view",
      "type": "function"
    },
    {
      "inputs": [],
      "name": "getTotalWaves",
      "outputs": [
        {
          "internalType": "uint256",
          "name": "",
          "type": "uint256"
        }
      ],
      "stateMutability": "view",
      "type": "function"
    },
    {
      "inputs": [
        {
          "internalType": "address",
          "name": "_addr",
          "type": "address"
        }
      ],
      "name": "getTotalWavesByAddress",
      "outputs": [
        {
          "internalType": "uint256",
          "name": "",
          "type": "uint256"
        }
      ],
      "stateMutability": "view",
      "type": "function"
    },
    {
      "inputs": [],
      "name": "hasVoted",
      "outputs": [
        {
          "internalType": "bool",
          "name": "",
          "type": "bool"
        }
      ],
      "stateMutability": "view",
      "type": "function"
    },
    {
      "inputs": [
        {
          "internalType": "uint256",
          "name": "",
          "type": "uint256"
        }
      ],
      "name": "ideas",
      "outputs": [
        {
          "internalType": "address",
          "name": "creator",
          "type": "address"
        },
        {
          "internalType": "string",
          "name": "name",
          "type": "string"
        },
        {
          "internalType": "uint256",
          "name": "timestamp",
          "type": "uint256"
        },
        {
          "internalType": "uint256",
          "name": "voteCount",
          "type": "uint256"
        }
      ],
      "stateMutability": "view",
      "type": "function"
    },
    {
      "inputs": [
        {
          "internalType": "address",
          "name": "",
          "type": "address"
        }
      ],
      "name": "lastWavedAt",
      "outputs": [
        {
          "internalType": "uint256",
          "name": "",
          "type": "uint256"
        }
      ],
      "stateMutability": "view",
      "type": "function"
    },
    {
      "inputs": [
        {
          "internalType": "uint256",
          "name": "_idea",
          "type": "uint256"
        }
      ],
      "name": "vote",
      "outputs": [],
      "stateMutability": "nonpayable",
      "type": "function"
    },
    {
      "inputs": [
        {
          "internalType": "address",
          "name": "",
          "type": "address"
        }
      ],
      "name": "voters",
      "outputs": [
        {
          "internalType": "address",
          "name": "voter",
          "type": "address"
        },
        {
          "internalType": "bool",
          "name": "voted",
          "type": "bool"
        }
      ],
      "stateMutability": "view",
      "type": "function"
    },
    {
      "inputs": [
        {
          "internalType": "string",
          "name": "_message",
          "type": "string"
        }
      ],
      "name": "wave",
      "outputs": [],
      "stateMutability": "nonpayable",
      "type": "function"
    }
  ],
  "bytecode": "0x60806040526200003360405180606001604052806025815260200162001dd3602591396200005b60201b62000d671760201c565b60644442620000439190620001a8565b6200004f919062000245565b600181905550620002ec565b620000fb8160405160240162000072919062000168565b6040516020818303038152906040527f41304fac000000000000000000000000000000000000000000000000000000007bffffffffffffffffffffffffffffffffffffffffffffffffffffffff19166020820180517bffffffffffffffffffffffffffffffffffffffffffffffffffffffff8381831617835250505050620000fe60201b60201c565b50565b60008151905060006a636f6e736f6c652e6c6f679050602083016000808483855afa5050505050565b600062000134826200018c565b62000140818562000197565b9350620001528185602086016200020f565b6200015d81620002db565b840191505092915050565b6000602082019050818103600083015262000184818462000127565b905092915050565b600081519050919050565b600082825260208201905092915050565b6000620001b58262000205565b9150620001c28362000205565b9250827fffffffffffffffffffffffffffffffffffffffffffffffffffffffffffffffff03821115620001fa57620001f96200027d565b5b828201905092915050565b6000819050919050565b60005b838110156200022f57808201518184015260208101905062000212565b838111156200023f576000848401525b50505050565b6000620002528262000205565b91506200025f8362000205565b925082620002725762000271620002ac565b5b828206905092915050565b7f4e487b7100000000000000000000000000000000000000000000000000000000600052601160045260246000fd5b7f4e487b7100000000000000000000000000000000000000000000000000000000600052601260045260246000fd5b6000601f19601f8301169050919050565b611ad780620002fc6000396000f3fe608060405234801561001057600080fd5b50600436106100a95760003560e01c806395b538371161007157806395b5383714610152578063987a1c3d146101855780639a2cdc08146101a1578063a3ec138d146101bf578063a42a4663146101f0578063bd43a90814610220576100a9565b80630121b93f146100ae5780631e0070d3146100ca5780633a9e6af0146100fa578063449d46c0146101185780636482133814610134575b600080fd5b6100c860048036038101906100c39190611103565b61023e565b005b6100e460048036038101906100df9190611099565b6103f0565b6040516100f1919061170d565b60405180910390f35b61010261043e565b60405161010f919061159e565b60405180910390f35b610132600480360381019061012d91906110c2565b610599565b005b61013c6108d4565b60405161014991906115e2565b60405180910390f35b61016c60048036038101906101679190611103565b610930565b60405161017c9493929190611552565b60405180910390f35b61019f600480360381019061019a91906110c2565b610a18565b005b6101a9610b62565b6040516101b6919061170d565b60405180910390f35b6101d960048036038101906101d49190611099565b610bad565b6040516101e7929190611529565b60405180910390f35b61020a60048036038101906102059190611099565b610bfe565b604051610217919061170d565b60405180910390f35b610228610c16565b60405161023591906115c0565b60405180910390f35b6000600360003373ffffffffffffffffffffffffffffffffffffffff1673ffffffffffffffffffffffffffffffffffffffff16815260200190815260200160002090508060000160149054906101000a900460ff16156102d3576040517f08c379a00000000000000000000000000000000000000000000000000000000081526004016102ca9061168d565b60405180910390fd5b60018160000160146101000a81548160ff02191690831515021790555060016005838154811061032c577f4e487b7100000000000000000000000000000000000000000000000000000000600052603260045260246000fd5b9060005260206000209060040201600301600082825461034c9190611863565b925050819055503373ffffffffffffffffffffffffffffffffffffffff167fff14080bcf45460ad8e42f48fb1741ebb5632b5394c805a3526ecc99e9a97a54600584815481106103c5577f4e487b7100000000000000000000000000000000000000000000000000000000600052603260045260246000fd5b9060005260206000209060040201600301546040516103e4919061170d565b60405180910390a25050565b60006104346040518060400160405280601681526020017f2573206861732077617665642025642074696d65733a0000000000000000000081525083600054610e00565b6000549050919050565b60606005805480602002602001604051908101604052809291908181526020016000905b8282101561059057838290600052602060002090600402016040518060800160405290816000820160009054906101000a900473ffffffffffffffffffffffffffffffffffffffff1673ffffffffffffffffffffffffffffffffffffffff1673ffffffffffffffffffffffffffffffffffffffff1681526020016001820180546104eb90611943565b80601f016020809104026020016040519081016040528092919081815260200182805461051790611943565b80156105645780601f1061053957610100808354040283529160200191610564565b820191906000526020600020905b81548152906001019060200180831161054757829003601f168201915b505050505081526020016002820154815260200160038201548152505081526020019060010190610462565b50505050905090565b426005600660003373ffffffffffffffffffffffffffffffffffffffff1673ffffffffffffffffffffffffffffffffffffffff168152602001908152602001600020546105e69190611863565b10610626576040517f08c379a000000000000000000000000000000000000000000000000000000000815260040161061d906116ad565b60405180910390fd5b42600660003373ffffffffffffffffffffffffffffffffffffffff1673ffffffffffffffffffffffffffffffffffffffff16815260200190815260200160002081905550600160008082825461067c9190611863565b92505081905550600460405180606001604052803373ffffffffffffffffffffffffffffffffffffffff16815260200183815260200142815250908060018154018082558091505060019003906000526020600020906003020160009091909190915060008201518160000160006101000a81548173ffffffffffffffffffffffffffffffffffffffff021916908373ffffffffffffffffffffffffffffffffffffffff1602179055506020820151816001019080519060200190610742929190610f64565b50604082015181600201555050606460015444426107609190611863565b61076a9190611863565b6107749190611975565b600181905550603260015411610881576000655af3107a40009050478111156107d2576040517f08c379a00000000000000000000000000000000000000000000000000000000081526004016107c9906116cd565b60405180910390fd5b60003373ffffffffffffffffffffffffffffffffffffffff16826040516107f890611514565b60006040518083038185875af1925050503d8060008114610835576040519150601f19603f3d011682016040523d82523d6000602084013e61083a565b606091505b505090508061087e576040517f08c379a0000000000000000000000000000000000000000000000000000000008152600401610875906116ed565b60405180910390fd5b50505b3373ffffffffffffffffffffffffffffffffffffffff167f5f7e16dc676677766a70e9c5628aa6c54ddb8b6e5188e2ae1e1f17f1ffbea71642836040516108c9929190611728565b60405180910390a250565b600080600360003373ffffffffffffffffffffffffffffffffffffffff1673ffffffffffffffffffffffffffffffffffffffff16815260200190815260200160002090508060000160149054906101000a900460ff1691505090565b6005818154811061094057600080fd5b90600052602060002090600402016000915090508060000160009054906101000a900473ffffffffffffffffffffffffffffffffffffffff169080600101805461098990611943565b80601f01602080910402602001604051908101604052809291908181526020018280546109b590611943565b8015610a025780601f106109d757610100808354040283529160200191610a02565b820191906000526020600020905b8154815290600101906020018083116109e557829003601f168201915b5050505050908060020154908060030154905084565b600160026000828254610a2b9190611863565b92505081905550600560405180608001604052803373ffffffffffffffffffffffffffffffffffffffff1681526020018381526020014281526020016000815250908060018154018082558091505060019003906000526020600020906004020160009091909190915060008201518160000160006101000a81548173ffffffffffffffffffffffffffffffffffffffff021916908373ffffffffffffffffffffffffffffffffffffffff1602179055506020820151816001019080519060200190610af8929190610f64565b50604082015181600201556060820151816003015550503373ffffffffffffffffffffffffffffffffffffffff167fafa42e0b9606b8920f3f9d63710ee2fcd958020646a9bbe65b6722022cb444114283604051610b57929190611728565b60405180910390a250565b6000610ba56040518060400160405280601781526020017f5765206861766520256420746f74616c2077617665733a000000000000000000815250600054610e9f565b600054905090565b60036020528060005260406000206000915090508060000160009054906101000a900473ffffffffffffffffffffffffffffffffffffffff16908060000160149054906101000a900460ff16905082565b60066020528060005260406000206000915090505481565b60606004805480602002602001604051908101604052809291908181526020016000905b82821015610d5e57838290600052602060002090600302016040518060600160405290816000820160009054906101000a900473ffffffffffffffffffffffffffffffffffffffff1673ffffffffffffffffffffffffffffffffffffffff1673ffffffffffffffffffffffffffffffffffffffff168152602001600182018054610cc390611943565b80601f0160208091040260200160405190810160405280929190818152602001828054610cef90611943565b8015610d3c5780601f10610d1157610100808354040283529160200191610d3c565b820191906000526020600020905b815481529060010190602001808311610d1f57829003601f168201915b5050505050815260200160028201548152505081526020019060010190610c3a565b50505050905090565b610dfd81604051602401610d7b91906115fd565b6040516020818303038152906040527f41304fac000000000000000000000000000000000000000000000000000000007bffffffffffffffffffffffffffffffffffffffffffffffffffffffff19166020820180517bffffffffffffffffffffffffffffffffffffffffffffffffffffffff8381831617835250505050610f3b565b50565b610e9a838383604051602401610e189392919061161f565b6040516020818303038152906040527f07c81217000000000000000000000000000000000000000000000000000000007bffffffffffffffffffffffffffffffffffffffffffffffffffffffff19166020820180517bffffffffffffffffffffffffffffffffffffffffffffffffffffffff8381831617835250505050610f3b565b505050565b610f378282604051602401610eb592919061165d565b6040516020818303038152906040527f9710a9d0000000000000000000000000000000000000000000000000000000007bffffffffffffffffffffffffffffffffffffffffffffffffffffffff19166020820180517bffffffffffffffffffffffffffffffffffffffffffffffffffffffff8381831617835250505050610f3b565b5050565b60008151905060006a636f6e736f6c652e6c6f679050602083016000808483855afa5050505050565b828054610f7090611943565b90600052602060002090601f016020900481019282610f925760008555610fd9565b82601f10610fab57805160ff1916838001178555610fd9565b82800160010185558215610fd9579182015b82811115610fd8578251825591602001919060010190610fbd565b5b509050610fe69190610fea565b5090565b5b80821115611003576000816000905550600101610feb565b5090565b600061101a61101584611789565b611758565b90508281526020810184848401111561103257600080fd5b61103d848285611901565b509392505050565b60008135905061105481611a73565b92915050565b600082601f83011261106b57600080fd5b813561107b848260208601611007565b91505092915050565b60008135905061109381611a8a565b92915050565b6000602082840312156110ab57600080fd5b60006110b984828501611045565b91505092915050565b6000602082840312156110d457600080fd5b600082013567ffffffffffffffff8111156110ee57600080fd5b6110fa8482850161105a565b91505092915050565b60006020828403121561111557600080fd5b600061112384828501611084565b91505092915050565b60006111388383611443565b905092915050565b600061114c83836114a6565b905092915050565b61115d816118b9565b82525050565b61116c816118b9565b82525050565b600061117d826117d9565b6111878185611814565b935083602082028501611199856117b9565b8060005b858110156111d557848403895281516111b6858261112c565b94506111c1836117fa565b925060208a0199505060018101905061119d565b50829750879550505050505092915050565b60006111f2826117e4565b6111fc8185611825565b93508360208202850161120e856117c9565b8060005b8581101561124a578484038952815161122b8582611140565b945061123683611807565b925060208a01995050600181019050611212565b50829750879550505050505092915050565b611265816118cb565b82525050565b6000611276826117ef565b6112808185611841565b9350611290818560208601611910565b61129981611a62565b840191505092915050565b60006112af826117ef565b6112b98185611852565b93506112c9818560208601611910565b6112d281611a62565b840191505092915050565b60006112ea600d83611852565b91507f416c726561647920566f746564000000000000000000000000000000000000006000830152602082019050919050565b600061132a600e83611852565b91507f576169742035207365636f6e64730000000000000000000000000000000000006000830152602082019050919050565b600061136a603483611852565b91507f547279696e6720746f207769746864726177206d6f7265206d6f6e657920746860008301527f616e2074686520636f6e7472616374206861732e0000000000000000000000006020830152604082019050919050565b60006113d0602783611852565b91507f4661696c656420746f207769746864726177206d6f6e65792066726f6d20636f60008301527f6e74726163742e000000000000000000000000000000000000000000000000006020830152604082019050919050565b6000611436600083611836565b9150600082019050919050565b600060808301600083015161145b6000860182611154565b5060208301518482036020860152611473828261126b565b915050604083015161148860408601826114f6565b50606083015161149b60608601826114f6565b508091505092915050565b60006060830160008301516114be6000860182611154565b50602083015184820360208601526114d6828261126b565b91505060408301516114eb60408601826114f6565b508091505092915050565b6114ff816118f7565b82525050565b61150e816118f7565b82525050565b600061151f82611429565b9150819050919050565b600060408201905061153e6000830185611163565b61154b602083018461125c565b9392505050565b60006080820190506115676000830187611163565b818103602083015261157981866112a4565b90506115886040830185611505565b6115956060830184611505565b95945050505050565b600060208201905081810360008301526115b88184611172565b905092915050565b600060208201905081810360008301526115da81846111e7565b905092915050565b60006020820190506115f7600083018461125c565b92915050565b6000602082019050818103600083015261161781846112a4565b905092915050565b6000606082019050818103600083015261163981866112a4565b90506116486020830185611163565b6116556040830184611505565b949350505050565b6000604082019050818103600083015261167781856112a4565b90506116866020830184611505565b9392505050565b600060208201905081810360008301526116a6816112dd565b9050919050565b600060208201905081810360008301526116c68161131d565b9050919050565b600060208201905081810360008301526116e68161135d565b9050919050565b60006020820190508181036000830152611706816113c3565b9050919050565b60006020820190506117226000830184611505565b92915050565b600060408201905061173d6000830185611505565b818103602083015261174f81846112a4565b90509392505050565b6000604051905081810181811067ffffffffffffffff8211171561177f5761177e611a33565b5b8060405250919050565b600067ffffffffffffffff8211156117a4576117a3611a33565b5b601f19601f8301169050602081019050919050565b6000819050602082019050919050565b6000819050602082019050919050565b600081519050919050565b600081519050919050565b600081519050919050565b6000602082019050919050565b6000602082019050919050565b600082825260208201905092915050565b600082825260208201905092915050565b600081905092915050565b600082825260208201905092915050565b600082825260208201905092915050565b600061186e826118f7565b9150611879836118f7565b9250827fffffffffffffffffffffffffffffffffffffffffffffffffffffffffffffffff038211156118ae576118ad6119a6565b5b828201905092915050565b60006118c4826118d7565b9050919050565b60008115159050919050565b600073ffffffffffffffffffffffffffffffffffffffff82169050919050565b6000819050919050565b82818337600083830152505050565b60005b8381101561192e578082015181840152602081019050611913565b8381111561193d576000848401525b50505050565b6000600282049050600182168061195b57607f821691505b6020821081141561196f5761196e611a04565b5b50919050565b6000611980826118f7565b915061198b836118f7565b92508261199b5761199a6119d5565b5b828206905092915050565b7f4e487b7100000000000000000000000000000000000000000000000000000000600052601160045260246000fd5b7f4e487b7100000000000000000000000000000000000000000000000000000000600052601260045260246000fd5b7f4e487b7100000000000000000000000000000000000000000000000000000000600052602260045260246000fd5b7f4e487b7100000000000000000000000000000000000000000000000000000000600052604160045260246000fd5b6000601f19601f8301169050919050565b611a7c816118b9565b8114611a8757600080fd5b50565b611a93816118f7565b8114611a9e57600080fd5b5056fea2646970667358221220fd6469c252d5d415018790facfec823beb188af43279610edfd601686ce4dc8664736f6c63430008000033596f20796f2c204920616d206120636f6e747261637420616e64204920616d20736d617274",
  "linkReferences": {},
  "deployedLinkReferences": {}
}